:100000000C9434000C9446000C9446000C9446006A
:100010000C9446000C9446000C9446000C94460048
:100020000C9446000C944F000C9466000C9446000F
:100030000C9446000C9446000C9446000C94460028
:100040000C9446000C9446000C9446000C94460018
:100050000C9446000C9446000C9446000C94460008
:100060000C9446000C94460011241FBECFEFD8E03C
:10007000DEBFCDBF21E0A0E0B1E001C01D92AC30F9
:10008000B207E1F70E94CF000C943E020C940000EE
:100090005C9A8AE18A95F1F700C05C9808951F92F6
:1000A0000F920FB60F9211248F939F9380910001AE
:1000B00090910101019690930101809300019F911D
:1000C0008F910F900FBE0F901F9018951F920F9257
:1000D0000FB60F9211242F933F934F935F936F931B
:1000E0007F938F939F93AF93BF93EF93FF938091F1
:1000F000020190910301019771F481E080938100E6
:10010000109201011092000110920301109202015D
:100110001092B20033C081E4809381004091860048
:1001200050918700A0910001B09101012FEF3FEFA6
:100130000E942802640F751F811D911D60930801A4
:100140007093090180930A0190930B010E9473013F
:1001500029E23CE349EE53E40E94FF00609304016E
:1001600070930501809306019093070181E090E070
:1001700090930301809302011092B200FF91EF91DE
:10018000BF91AF919F918F917F916F915F914F91AF
:100190003F912F910F900FBE0F901F90189581E106
:1001A0008AB981E0809370008093B10081E48093EC
:1001B0008100EFE6F0E0808180628083789481E0C6
:1001C00090E09093030180930201C2EBD0E011E034
:1001D0000E944800188220E030E040EF51E4609136
:1001E00004017091050180910601909107010E9420
:1001F000FF01882314F01BB9EBCF1BB8E9CF0E9495
:1002000013010C94C5010E94BE0158F00E94B70171
:1002100040F029F45F3F29F00C94AE0151110C9489
:10022000F9010C94B4010E94D60168F39923B1F34B
:10023000552391F3951B550BBB27AA27621773070C
:10024000840738F09F5F5F4F220F331F441FAA1FA0
:10025000A9F335D00E2E3AF0E0E832D0915050405C
:10026000E695001CCAF72BD0FE2F29D0660F771F0A
:10027000881FBB1F261737074807AB07B0E809F0F0
:10028000BB0B802DBF01FF2793585F4F3AF09E3F75
:10029000510578F00C94AE010C94F9015F3FE4F342
:1002A000983ED4F3869577956795B795F7959F5FB8
:1002B000C9F7880F911D9695879597F90895E1E004
:1002C000660F771F881FBB1F621773078407BA0763
:1002D00020F0621B730B840BBA0BEE1F88F7E095BE
:1002E0000895E89409C097FB3EF490958095709529
:1002F00061957F4F8F4F9F4F9923A9F0F92F96E972
:10030000BB279395F695879577956795B795F111E6
:10031000F8CFFAF4BB0F11F460FF1BC06F5F7F4F83
:100320008F4F9F4F16C0882311F096E911C0772395
:1003300021F09EE8872F762F05C0662371F096E89E
:10034000862F70E060E02AF09A95660F771F881F6D
:10035000DAF7880F9695879597F9089597F99F672B
:1003600080E870E060E008959FEF80EC089500243D
:100370000A941616170618060906089500240A940A
:1003800012161306140605060895092E0394000C90
:1003900011F4882352F0BB0F40F4BF2B11F460FF1F
:1003A00004C06F5F7F4F8F4F9F4F089557FD905848
:1003B000440F551F59F05F3F71F04795880F97FB29
:1003C000991F61F09F3F79F08795089512161306E3
:1003D0001406551FF2CF4695F1DF08C01616170612
:1003E0001806991FF1CF8695710561050894089547
:1003F000E894BB2766277727CB0197F908950E94D9
:10040000040208F48FEF0895990F0008550FAA0B06
:10041000E0E8FEEF16161706E807F907C0F0121617
:100420001306E407F50798F0621B730B840B950B1A
:1004300039F40A2661F0232B242B252B21F408956F
:100440000A2609F4A140A6958FEF811D811D08950C
:100450000E942F02B7FF0895821B930B0895A29F5D
:10046000B001B39FC001A39F700D811D1124911D88
:10047000B29F700D811D1124911D0895F894FFCF36
:00000001FF
